:020000040800F2
:10000000880B002089010008A90300085903000893
:10001000A5030008390200082F0A000800000000AC
:100020000000000000000000000000009B06000827
:100030003D020008000000001D040008A1010008A6
:10004000A3010008A3010008A3010008A301000800
:10005000A3010008A3010008A3010008A3010008F0
:10006000A3010008A3010008A3010008A3010008E0
:10007000A3010008A3010008A3010008A3010008D0
:10008000A3010008A3010008A3010008A3010008C0
:10009000A3010008A3010008A3010008A3010008B0
:1000A000A3010008A3010008A3010008A3010008A0
:1000B000A3010008A3010008A3010008A301000890
:1000C000A3010008A3010008A3010008A301000880
:1000D000A30100080D080008A3010008A3010008FF
:1000E000A3010008A3010008A301000800F002F822
:1000F00000F03AF80AA090E8000C82448344AAF188
:100100000107DA4501D100F02FF8AFF2090EBAE885
:100110000F0013F0010F18BFFB1A43F0010318473B
:10012000FC3C00001C3D0000103A24BF78C878C198
:10013000FAD8520724BF30C830C144BF04680C60ED
:10014000704700000023002400250026103A28BF35
:1001500078C1FBD8520728BF30C148BF0B60704739
:100160001FB51FBD10B510BD00F033F81146FFF7E5
:10017000F7FF00F07FFD00F051F803B4FFF7F2FF46
:1001800003BC00F0ABFC0000094880470948004769
:10019000FEE7FEE7FEE7FEE7FEE7FEE7FEE7FEE737
:1001A000FEE7FEE704480549054A064B7047000094
:1001B000AD070008ED00000888050020880B00202E
:1001C00088070020880700207047704770477047F5
:1001D0007047754600F02CF8AE4605006946534658
:1001E00020F00700854618B020B5FFF7DBFFBDE81B
:1001F00020404FF000064FF000074FF000084FF08E
:10020000000B21F00701AC46ACE8C009ACE8C0091E
:10021000ACE8C009ACE8C0098D46704710B504468B
:10022000AFF300802046BDE81040FFF7A6BF0000F6
:10023000004870472405002000BFFEE770472DE905
:10024000F04102460025002600200023002400275C
:1002500091F803C00CF00F0591F803C00CF0100CDE
:10026000BCF1000F03D091F802C04CEA050591F8EB
:1002700000C0BCF1000F31D0146800202BE04FF01B
:10028000010C0CFA00F3B1F800C00CEA03069E4220
:1002900020D183004FF00F0C0CFA03F7BC4305FA92
:1002A00003FC4CEA040491F803C0BCF1280F06D10A
:1002B0004FF0010C0CFA00FCC2F814C00AE091F8EF
:1002C00003C0BCF1480F05D14FF0010C0CFA00FC43
:1002D000C2F810C0401C0828D1D31460B1F800C087
:1002E000BCF1FF0F34DD546800202EE000F1080C53
:1002F0004FF0010808FA0CF3B1F800C00CEA03064D
:100300009E4221D183004FF00F0C0CFA03F7BC433F
:1003100005FA03FC4CEA040491F803C0BCF1280F71
:1003200005D100F1080C08FA0CF8C2F8148091F815
:1003300003C0BCF1480F07D100F1080C4FF00108D1
:1003400008FA0CF8C2F81080401C0828CED354607C
:10035000BDE8F0810161704700BFFEE710B54FF4C2
:10036000A06101F007020C4B18684FF6FF0318401C
:100370000A4B034343EA0220074B186000BF00F01A
:1003800031FC4FF4E13000F039FD00F0D1FC0448BD
:1003900000F0F6FC10BD00000CED00E00000FA05D6
:1003A0004C00002000BFFEE77047000070B5002140
:1003B00000230F22C47804B3154C246804F4E064CD
:1003C000C4F5E064210AC1F10403CA40447804FA88
:1003D00003F184781440214309010E4C0678A1559D
:1003E000047804F01F050124AC4005786D11AD00C0
:1003F00005F1E025C5F8004109E0047804F01F0587
:100400000124AC40044D0678761145F8264070BDB5
:100410000CED00E000E400E080E100E07047000047
:1004200029B1064A12690243044B1A6104E0034AE7
:1004300012698243014B1A617047000000100240AC
:1004400029B1064A92690243044B9A6104E0034AC7
:1004500092698243014B9A6170470000001002408C
:1004600029B1064AD2680243044BDA6004E0034A29
:10047000D2688243014BDA607047000000100240EE
:1004800030B500210022002400232D4D6D6805F0B9
:100490000C0121B1042905D0082923D105E0294DFB
:1004A000056022E0274D05601FE0254D6D6805F4CD
:1004B0007012234D6D6805F48034022505EB9242DD
:1004C0001CB9214D554305600BE01D4D6D6805F4C9
:1004D00000351DB11C4D5543056002E0194D5543D3
:1004E000056002E0174D056000BF00BF144D6D6848
:1004F00005F0F0010909154D6B5C0568DD404560AC
:100500000F4D6D6805F4E061090A104D6B5C45689C
:10051000DD4085600A4D6D6805F46051C90A0B4DD8
:100520006B5C4568DD40C560054D6D6805F4404174
:10053000890B074D6B5CC568B5FBF3F5056130BDF4
:100540000010024000127A0000093D000000002067
:100550001000002021B1028842F04002028004E035
:1005600002884FF6BF731A400280704710B50446E8
:100570001148844208D101218014FFF771FF002146
:10058000A014FFF76DFF16E00C48844208D101214A
:100590000014FFF745FF00212014FFF741FF0AE098
:1005A0000748844207D10121C013FFF739FF00211A
:1005B000E013FFF735FF10BD003001400038004068
:1005C000003C004010B50022028802F441520B8822
:1005D0004C8823438C882343CC8823430C892343B2
:1005E0004C8923438C892343CC8923431A430280BB
:1005F000838B4FF2FF74234083830B8A038210BDE9
:1006000010B5AE2000F0CEFBD52000F0CBFB802053
:1006100000F0C8FBA82000F0C5FB3F2000F0C2FBA3
:10062000D32000F0BFFB002000F0BCFB402000F016
:10063000B9FB8D2000F0B6FB142000F0B3FB2020A6
:1006400000F0B0FB002000F0ADFBA12000F0AAFB01
:10065000C02000F0A7FBDA2000F0A4FB122000F07D
:10066000A1FB812000F09EFBEF2000F09BFBD92036
:1006700000F098FBF12000F095FBDB2000F092FBEE
:10068000302000F08FFBA42000F08CFBA62000F0AF
:1006900089FBAF2000F086FB10BD704710B500F05D
:1006A00001F810BD0CB5002001900090334800689F
:1006B00040F480303149086000BF3048006800F4E1
:1006C000003000900198401C0190009818B90198E2
:1006D000B0F5A06FF1D12948006800F4003010B1E6
:1006E0000120009001E0002000900098012843D1F3
:1006F0002348006840F0100021490860084600685F
:1007000020F0030008600846006840F0020008601E
:100710001A484068194948600846406848600846D9
:10072000406840F4806048600846406820F47C10CF
:1007300048600846406840F4E81048600846006891
:1007400040F08070086000BF0C48006800F0007046
:100750000028F9D00948406820F0030007494860A4
:100760000846406840F00200486000BF0348406807
:1007700000F00C000828F9D10CBD00000010024068
:1007800000200240042808D14FF0E021096941F01F
:1007900004014FF0E022116107E04FF0E021096908
:1007A00021F004014FF0E0221161704710B51348A9
:1007B000006840F00100114908600846406810498F
:1007C00008400E494860084600680E4908400B4939
:1007D00008600846006820F48020086008464068E9
:1007E00020F4FE0048604FF41F008860FFF756FFBA
:1007F0004FF000600449086010BD00000010024086
:100800000000FFF8FFFFF6FE08ED00E010B540F233
:1008100025511D4800F04AF810B31B4800F002F9BA
:10082000C4B21A48008800F40040C8B917480088CC
:1008300000F4804060B10A2C03D0002013490880E6
:1008400020E01248008840F400401049088019E078
:100850000D2C06D10D48008840F480400B490880DB
:1008600010E00A480088C0F30D0009490C540748FD
:100870000088401C0549088008460088C72801DD1B
:100880000020088010BD000000380140300000202A
:100890005C00002021B1828942F40052828104E090
:1008A00082894DF6FF731A408281704770B5024607
:1008B000002400230025002040F66A16B14200D132
:1008C00000BFC1F3421501F01F03012606FA03F32E
:1008D000012D02D19689334006E0022D02D1168AFD
:1008E000334001E0968A33400C12012606FA04F4E4
:1008F0001688344013B10CB1012000E0002070BD17
:10090000F0B50346002400260025002040F66A17B3
:10091000B94200D100BF1846C1F3421401F01F06CE
:10092000012707FA06F5012C01D10C3004E0022C56
:1009300001D1103000E014301AB107682F4307606E
:1009400002E00768AF430760F0BD00002DE9F04703
:1009500086B005460E460024A24600BFA1460027E9
:10096000B08900B100BF2F462C8A4CF6FF700440BE
:10097000F08804432C82AC894EF6F3100440B08812
:1009800031890843718908430443AC81AC8A4FF62E
:10099000FF400440B0890443AC8201A8FFF770FD1A
:1009A0001F48874202D1DDF810A001E0DDF80CA05D
:1009B000A88900F4004040B10AEBCA0000EB0A101D
:1009C00031684900B0FBF1F807E00AEBCA0000EB20
:1009D0000A1031688900B0FBF1F86420B8FBF0F030
:1009E00004012009642101FB1089A88900F400405A
:1009F00040B1322000EBC900B0FBF1F000F007007D
:100A0000044308E0322000EB09106421B0FBF1F050
:100A100000F00F0004432C8106B0BDE8F087000011
:100A20000038014001468888C0F30800704700BFC5
:100A3000FEE7000000B587B001210520FFF700FDAB
:100A400001210803FFF7FCFC18208DF81B00A020F3
:100A5000ADF8180003208DF81A0006A91D48FFF70D
:100A6000EEFB10208DF81B004FF48970ADF81800D4
:100A700006A91848FFF7E3FB4FF4D9711548FFF7B3
:100A800069FC1548FFF772FD0020ADF81000012049
:100A9000ADF80C000220ADF80A000720ADF81400F4
:100AA0000020ADF80800ADF80400ADF812004FF4D6
:100AB0008270ADF806004FF40070ADF80E0001A989
:100AC0000548FFF77FFD01210348FFF743FD07B00D
:100AD00000BD00000008014000300140014600BF99
:100AE00070472DE9FF4F84B08A461E46119D202E87
:100AF00001DB7E2E02DD08B0BDE8F08FA6F12000FC
:100B0000AA78696800FB02100390A878297890FB06
:100B1000F1F00090002438E06878A0EBC400029067
:100B20000298082801D9082000E00298029006984F
:100B300000EBC40B4FF0000823E00AEB0807002F7E
:100B400001DB802F00DB1AE0287804FB008103988A
:100B5000405C01904FF000090DE0019800F00103A6
:100B60000BEB09023946049800F014F80198401084
:100B7000019009F1010902988145EED300BF08F107
:100B8000010828784045D8D8641C00988442C3D313
:100B900000BFB0E770B5802901D2402A00D370BDF4
:100BA000C2F13F0273B1D40801EBC414045D02F03A
:100BB00007060125B5402C43E5B2D40801EBC41467
:100BC00005550CE0D40801EBC414045D02F00706DF
:100BD0000125B540AC43D50801EBC515445500BF10
:100BE000DDE7000010B56FF00400FFF7CBFD0A4809
:100BF00000680A49B0FBF1F009490870084600781E
:100C000000EB4001C1EBC0104FF6FF7101EAC000DC
:100C10000449088010BD00001400002000127A0072
:100C2000280000202A0000200146114A12884A4369
:100C30004FF0E0235A6100229A611A46126942F08D
:100C400001021A6100BF4FF0E022106900F00102BA
:100C50001AB100F48032002AF5D04FF0E022126978
:100C600022F001024FF0E0231A6100229A617047DE
:100C70002A0000200024FFF771FB32E0194800F041
:100C80007FF804F12000C2B20021084600F03EF8CF
:100C9000154800F075F804F12000C2B200210620CA
:100CA00000F034F8114800F06BF804F12000C2B2F3
:100CB00000210E2000F02AF80D4800F061F804F140
:100CC0002000C2B200211A2000F020F800F03CF809
:100CD000601CC4B25E2C00DD00244FF47A70FFF774
:100CE000A3FFCBE7440000203C0000204C00002084
:100CF00054000020002003E00021034A1154401C4E
:100D0000B0F5806FF8DB704724010020F8B5044689
:100D10000D4616460448406833462A462146009050
:100D20000248FFF7DEFEF8BD340000202401002059
:100D300010B5FFF77FFE00F029F8FFF761FCFFF721
:100D4000D9FF00F001F810BD10B5212000F02AF8FD
:100D5000002000F027F87F2000F024F8222000F087
:100D600021F8002000F01EF8072000F01BF84FF4D7
:100D70008061024800F026F810BD00002401002028
:100D80000149486070470000340000204FF4807033
:100D9000034908601020091D0860091F086070479A
:100DA000100801400221054A1160C901116004497F
:100DB00088818915121F11607047000014080140D6
:100DC0000030014010B5024602230A4C2360DB01CB
:100DD000241D2360002003E0135C074CA381401C0A
:100DE0008842F9D34FF48073024C236002232360BE
:100DF00010BD0000100801400030014010B586B061
:100E00000446012144F20400FFF71AFB4FF400707E
:100E1000ADF8140003208DF8160018208DF8170087
:100E200005A91C48FFF70BFA4FF48060ADF81400D9
:100E300004208DF8170005A91648FFF700FA2520B1
:100E40008DF8000003208DF801008DF802000120CC
:100E50008DF803006846FFF7A9FA01940020ADF869
:100E60000800ADF80A00ADF80C00ADF810000C2039
:100E7000ADF80E0001A90848FFF768FD012240F215
:100E800025510548FFF73CFD01210348FFF702FD0E
:100E900006B010BD0008014000380140000000000D
:100EA000000000000000000000000000000000F84A
:100EB00000000000000000330000000000100C02E1
:100EC000100C020000000000000000000040C0788C
:100ED00040C0780000043F04043F0400007088888C
:100EE000FC08300000182020FF211E00F008F080D0
:100EF0006018000000310C031E211E0000F008885D
:100F0000700000001E21232C1927211000120E0052
:100F1000000000000000000000000000000000E0F1
:100F20001804020000000007182040000002041806
:100F3000E00000000040201807000000404080F062
:100F4000804040000202010F010202000000000088
:100F5000E0000000000101010F010101000000009C
:100F60000000000000907000000000000000000081
:100F7000000000000001010101010100000000006B
:100F80000000000000303000000000000000000001
:100F9000C0380400006018070000000000E01008DE
:100FA0000810E000000F102020100F0000001010AB
:100FB000F8000000000020203F20200000700808FA
:100FC0000808F000003028242221300000300808F2
:100FD000088870000018202121221C000000804099
:100FE00030F8000000060524243F242400F88888F7
:100FF000880808000019202020110E0000E0108849
:1010000088900000000F112020201F000018080801
:10101000886818000000003E010000000070880889
:1010200008887000001C222121221C0000F0080802
:101030000810E0000001122222110F00000000C081
:10104000C000000000000030300000000000008000
:1010500000000000000000E00000000000008040F0
:101060002010080000010204081020000040404049
:10107000404040000002020202020200000810206C
:1010800040800000002010080402010000704808A1
:10109000088870000000003037000000C030C82809
:1010A000E810E000071827282F2817000000C03894
:1010B000E0000000203C23020227382008F888883E
:1010C00088700000203F202020110E00C03008084A
:1010D00008083800071820202010080008F8080821
:1010E0000810E000203F202020100F0008F888881A
:1010F000E8081000203F20202320180008F88888E6
:10110000E8081000203F200003000000C03008085D
:101110000838000007182020221E020008F80800E6
:101120000008F808203F210101213F20000808F8AD
:10113000080800000020203F2020000000000808D0
:10114000F8080800C08080807F00000008F888C090
:1011500028180800203F20012638200008F8080041
:1011600000000000203F20202020300008F8F80078
:10117000F8F80800203F013E013F200008F830C089
:101180000008F808203F200007183F00E01008087A
:101190000810E0000F10202020100F0008F80808A9
:1011A0000808F000203F210101010000E0100808BC
:1011B0000810E0000F10282830504F0008F88888E9
:1011C00088887000203F2000030C302000708808C1
:1011D000080838000038202121221C00180808F8CF
:1011E000080818000000203F2000000008F8080050
:1011F0000008F808001F202020201F000878880021
:1012000000C83808000007380E01000008F800F890
:1012100000F8080000033E013E0300000818688043
:101220008068180820302C03032C30200838C800B0
:10123000C83808000000203F2000000010080808FF
:10124000C83808002038262120201800000000FEA1
:10125000020202000000007F40404000000438C04D
:1012600000000000000000010638C0000002020279
:10127000FE000000004040407F000000000004022B
:101280000204000000000000000000000000000058
:101290000000000080808080808080800002020446
:1012A000000000000000000000000000000080803E
:1012B0008000000000192424123F200010F000805C
:1012C00080000000003F112020110E00000000806F
:1012D00080800000000E112020201100000080807E
:1012E0008090F000001F202020103F200000808010
:1012F00080800000001F242424241700008080E048
:10130000909020000020203F2020000000008080DE
:1013100080808000006B94949493600010F00080B3
:1013200080800000203F210000203F20008098980E
:10133000000000000020203F20200000000000806E
:101340009898000000C08080807F000010F00000AE
:1013500080808000203F240629302000001010F8F3
:10136000000000000020203F2020000080808080BE
:1013700080808000203F20003F20003F8080008050
:1013800080800000203F210000203F20000080805E
:1013900080800000001F202020201F00808000800F
:1013A0008000000080FF912020110E0000000080CE
:1013B00080008000000E11202091FF80808080003E
:1013C0008080800020203F212000010000008080DC
:1013D000808080000033242424241900008080E0D1
:1013E000808000000000001F20201000808000008E
:1013F00000808000001F202020103F20808080007F
:101400008080800000030C300C030000808000808E
:1014100080008080010E300C07380601008080803B
:10142000008080000020310E2E312000808080005E
:10143000008080800081867818060100008080800E
:10144000808080000021302C22213000000000002C
:1014500000FC020200000000013E404000000000CD
:10146000FF00000000000000FF0000000202FC007E
:101470000000000040403E010000000000020102A8
:101480000204020000000000000000000000000054
:10149000000000000000000000007C0000000000D0
:1014A000020000000004030403000000000000002C
:1014B00090FC90FC90000003000300001824FE4400
:1014C00088000102070201003844F8D02CC0000354
:1014D00000010201C038E418E0200102020102010B
:1014E0000403000000000000000000000000F806F7
:1014F0000100000000030400000106F800000004E1
:10150000030000009060F8609000000001000000FF
:10151000002020F820200000000000000000000053
:1015200000000403000000002020202020200000F4
:1015300000000000000000000000000200000000A9
:101540000000C0300C02040300000000F804040492
:10155000F8000102020201000008FC000000000285
:10156000030200001884442418000302020202004F
:1015700008042424D800010202020100C0A098FC43
:1015800080000000020302007C242424C400010225
:1015900002020100F0482424C800010202020100F6
:1015A0000004C4340C00000003000000D8242424EC
:1015B000D80001020202010038444424F80001026C
:1015C0000201000000001000000000000200000006
:1015D00000002000000000000600000000609008ED
:1015E0000400000000010200505050505050000014
:1015F00000000000000408906000000201000000EC
:101600001804C4241800000002000000F008E4F4EC
:10161000847800010202020100E09CF080000203D5
:101620000000030204FC2424D8000203020201008B
:10163000F80404040C0001020202010004FC04048A
:10164000F80002030202010004FC24740C000203EF
:101650000202030004FC24740C00020302000000D8
:10166000F0080444CC4000010202010004FC2020E8
:10167000FC040203000003020404FC040400020250
:1016800003020200000404FC04040C080807000024
:1016900004FC24508C0402030200030204FC040036
:1016A0000000020302020203FC3CC03CFC040300F5
:1016B0000300030204FC30C4FC0402030200030024
:1016C000F8040404F80001020202010004FC2424CE
:1016D0001800020302000000F8848404F8000102EC
:1016E0000207050004FC24649800020302000302C0
:1016F000182424448C000302020201000C04FC04A0
:101700000C0000020302000004FC0000FC040001C5
:1017100002020100047C80E01C04000003000000C1
:101720003CC07CC03C00000300030000049C609CA3
:101730000400020300030200043CC03C0400000259
:10174000030200000C84641C040002030202030074
:101750000000FF010100000007040400000638C07B
:101760000000000000010600000101FF000000046D
:101770000407000000020102000000000000000059
:101780000000000000000808080808080001020026
:1017900000000000000000000040A0A0C000000108
:1017A0000202030202FE2020C00000030202010028
:1017B00000C02020600000010202010000C02022C1
:1017C000FE0000010202030200C0A0A0C000000150
:1017D000020202000020FC22220400020302020096
:1017E0000040A0A0602000050A0A0A0402FE202092
:1017F000C0000203020003020020E6000000000215
:1018000003020000000020E60000080808070000AE
:1018100002FE806020000203000102000202FE00BE
:101820000000020203020200E020E020C0000300EA
:101830000300030020E02020C00002030200030296
:1018400000C02020C00000010202010020E0202092
:10185000C000080F0A02010000C02020E0000001C3
:10186000020A0F0820E040202000020302000000CE
:101870000060A0A020000002020203000020F82067
:10188000200000000302020020E00020E000000130
:101890000202030220E000E020000000030000003C
:1018A0006080E08060000003000300002060806032
:1018B000200002030003020020E00000E0200808EE
:1018C000050300000020A0602000000203020200C7
:1018D000000020FF0100000000070400000000FFDE
:1018E00000000000000F00000001DF2000000004E5
:1018F00007000000020101020100000000000000DA
:1019000000000000000000000000000000000000D7
:1019100000000000000000000000000000000000C7
:10192000000000000000000000F0F00000000000D7
:101930000000000000770F00000000000000000021
:10194000001C1C000000000000008060301C8C6047
:10195000301C0C000000000000000000000000002F
:101960000000000000000000000000000000000077
:10197000F000000000F00000008383FF8383838376
:10198000FB87830000011F01010101011F0101000C
:10199000000080C06020F820E0C0000000000307C5
:1019A0000C18FF71E18100000000070F12107F107A
:1019B0000F070000C0301030C00000C03000000031
:1019C00007181018CF38C6311030C00000001807B3
:1019D00000000718101807000000E0F010F0E00009
:1019E00000000000C0E0173FF8C70308F80808002F
:1019F000070F181010130F0E1910100C00008C4C4C
:101A0000380000000000000000000000000000009E
:101A100000000000000000000000000000000000C6
:101A200000000000000080601008040000000000BA
:101A300000FE010000000000000000000000030C98
:101A4000102040000004081060800000000000002A
:101A5000000000000001FE00000000000040201017
:101A60000C03000000000000000000000000C08027
:101A700000000000006666243810FF183C246666EB
:101A80000000000000000300000000000000000053
:101A90000000800000000000001010101010FF1067
:101AA00010101010000000000000030000000000F3
:101AB0000000000000000000000000000000000026
:101AC000000000000000000000008C4C3800000006
:101AD0000000000000000000000000000000000006
:101AE0000010101010101010101010000000000056
:101AF00000000000000000000000000000000000E6
:101B000000000000000000000000000000000000D5
:101B100000001C1C1C000000000000000000000071
:101B200000000000E0380C000000000080701C0382
:101B3000000000000060380E0100000000000000FE
:101B4000000080C060202060C080000000FEFF0117
:101B50000000000001FFFE000001070E1810101821
:101B60000E0701000000404040C0E00000000000FF
:101B70000000000000FFFF00000000000000101047
:101B8000101F1F1010100000008040202020206037
:101B9000C08000000003030000C060301F07000089
:101BA00000181C1211101010101E000000C0C020E0
:101BB000202060C080000000000101001010182FDC
:101BC000E7800000000E0E10101010180F07000024
:101BD00000000000000080E0E000000000C0A098CD
:101BE000848380FFFF808080000000000010101FB1
:101BF0001F1010000000E0202020202020200000E6
:101C000000003F1008080818F0E0000000070B1063
:101C10001010101C0F030000000080C04020202086
:101C2000E0C0000000FCFF211008080818F0E000E8
:101C30000001070C18101010080F03000000C0600E
:101C40002020202020E06000000001000000E018BB
:101C50000700000000000000001F1F00000000003F
:101C60000080C0602020202060C080000083CF6CF6
:101C70001810303068CF830000070F0810101010C4
:101C8000180F07000000C0C020202020C0800000E6
:101C9000001F3F604040402010FFFE0000000C1C71
:101CA000101010080F0300000000000000000000EA
:101CB0000000000000000000001C1C1C00000000D0
:101CC00000000000001C1C1C0000000000000000C0
:101CD000000000000000000000000000000C0C00EC
:101CE000000000000000000000D8380000000000E4
:101CF00000000000000000804020100000001028BC
:101D00004482010000000000000000000000010209
:101D100004081000000000000000000000000000A7
:101D2000004444444444444444444400000000000B
:101D300000000000000000000000102040800000B3
:101D40000000000000000000000001824428100094
:101D500000001008040201000000000000008040A4
:101D6000402020202060C080000007060000E01016
:101D700018080F0700000000001C1C1C00000000D9
:101D80000000C0E020109090A060800000FEFF00E6
:101D9000F8FF03FC07807F000000070E18111111E7
:101DA000090C0200000000008060E000000000005C
:101DB000000080784740415FF0800000101C131045
:101DC00000000000111F18100020E0E0202020601B
:101DD000C0C000000000FFFF101010182FE78000A7
:101DE00000101F1F10101010180F0700000080C0F7
:101DF0004020202060E0800000FCFF010000000087
:101E0000000003000001070E18101010080C03005A
:101E10002020E0E020202040C08000000000FFFFE4
:101E20000000000001FFFE0010101F1F101010081E
:101E30000E07010020E0E0202020202060608000CC
:101E400000FFFF10101010FC00000100101F1F10F9
:101E5000101010101018060020E0E0202020202094
:101E60006060800000FFFF10101010FC00000100F7
:101E7000101F1F101000000000000000000080C0B4
:101E8000602020204080000000FCFF010000404056
:101E9000C0C340400001070E181010100F0F0000C3
:101EA00020E0E0200000000020E0E02000FFFF1024
:101EB0001010101010FFFF00101F1F100000000076
:101EC000101F1F100000202020E0E0202020000034
:101ED0000000000000FFFF000000000000001010E4
:101EE000101F1F1010100000000000202020E0E054
:101EF00020202000000000000000FFFF0000000084
:101F00000060E08080C07F3F0000000020E0E02013
:101F10000000A0E06020000000FFFF300C3AE180EC
:101F200000000000101F1F10000000131E181000FA
:101F300020E0E020200000000000000000FFFF0083
:101F40000000000000000000101F1F1010101010F3
:101F50001018060020E0E000000000C0E0E02000D3
:101F600000FF0FFFE0807C03FFFF0000101F100048
:101F70000F0700101F1F10000020E0E0800000206D
:101F800020E020200000FF01071E78C000FF0000B5
:101F900010101F10100000030F1F0000000080C071
:101FA00060202060C080000000FEFF0100000000F3
:101FB00000FFFE000001070E181010180C070100AA
:101FC00020E0E0202020202040C0800000FFFF20F3
:101FD00020202030101F0F00101F1F1010000000C5
:101FE00000000000000080C060202060C080000071
:101FF00000FEFF010000000000FFFE000001070ED0
:102000001911173C6C67210020E0E02020202020DF
:1020100060C0800000FFFF10101070D0080F070094
:10202000101F1F1000000001071E18100080C06064
:102030002020202040E0000000070F1C18383070DE
:10204000E0E1800000070C0810101010180F0700C6
:102050008060202020E0E02020206080010000003F
:1020600000FFFF000000000100000010101F1F1003
:10207000100000000020E0E02000000020E0200030
:102080000000FFFF0000000000FF00000000070F3D
:1020900018101010080700002060E0200000000069
:1020A000A06020000000077EE000807807000000AC
:1020B00000000000071E03000000000020E02000D8
:1020C0002060E0200020E0200003FFC0C03C3FF083
:1020D000807C03000000001F0300001F07000000B9
:1020E000002060E020000020E0202000000000012F
:1020F000877CE8860100000000101816010000131C
:102100001E1810002060E0200000000020A06020C9
:102110000000010F3CF8E01806010000000000106C
:10212000101F1F10100000000080E0602020202001
:10213000A0E02000000100008060180603000000FD
:1021400000101C17111010101018060000000000DD
:1021500000FC0404040400000000000000FF000074
:102160000000000000000000007F404040400000F0
:10217000000030C00000000000000000000000006F
:102180000718E080000000000000000000000003CD
:102190000C708000000004040404FC000000000037
:1021A000000000000000FF000000000000004040B0
:1021B00040407F000000000000000008040202040C
:1021C0000800000000000000000000000000000007
:1021D00000000000000000000000000000000000FF
:1021E00000000000000000000000000000000000EF
:1021F00000000000808080808080808080808080DF
:1022000000000004040808000000000000000000B6
:1022100000000000000000000000000000000000BE
:1022200000000000000000000000000000000000AE
:102230000000989884444444FCF80000000F1F19E3
:10224000101010080F1F10180020E0F00000000010
:10225000000000000000FFFF180804040CF8F00064
:1022600000001F0F08101010180F030000000000DE
:10227000000000000000000000E0F8180404043C26
:102280003800000000030F0C1010101008060000AA
:102290000000000000002020E0F0000000E0F81C3A
:1022A00004040408FFFF000000030F1810101008BA
:1022B0001F0F0800000000000000000000000000E8
:1022C0000000E0F8888484848CF8E0000000030FAC
:1022D0000C101010100804000000000080C06020E6
:1022E00020E0C00000040404FFFF04040400000018
:1022F000000010101F1F1010100000000000000050
:102300000000000000000000000070F88C040CFCCD
:10231000F40C0C0000707ECF85858DCD78780000A0
:102320000020E0F000000000000000000000FFFFBF
:1023300008040404FCF8000000101F1F1000001027
:102340001F1F10000000000000606000000000007F
:102350000000040404FCFE00000000000000101057
:10236000101F1F101010000000000000000060602F
:102370006000000000000000040404FCFE000000F7
:102380000000C0C08080C07F3F0000000020E0F05F
:1023900000000000000000000000FFFF8040E01C83
:1023A0000404000000101F1F100000131E1810006E
:1023B0000000202020E0F0000000000000000000ED
:1023C00000FFFF000000000000001010101F1F1091
:1023D00010100000000000000000000000000000DD
:1023E00004FCFC0804FCF80804FCFC00101F1F108F
:1023F000101F1F10101F1F10000000000000000021
:10240000000000000004FCFC08040404FCF80000C8
:1024100000101F1F100000101F1F10000000000000
:10242000000000000000000000E0F0180C04040CA4
:1024300018F0E00000030F0C101010100C0F030038
:102440000000000000000000000000000004FCFC90
:10245000080404040CF8F0000080FFFF88901010BE
:102460001C0F03000000000000000000000000003E
:1024700000E0F81C04040408F8FC000000030F1836
:1024800010109088FFFF8000000000000000000096
:1024900000000000040404FCFC100804041C1800E4
:1024A0001010101F1F10101000000000000000008E
:1024B000000000000000000000003878CCC48484D4
:1024C0000C3C000000001E18101011191F0F000016
:1024D0000000000000C00000000000000004040430
:1024E000FFFF040404000000000000000F1F101094
:1024F000100C0000000000000000000000000000C0
:102500000004FCFE00000004FCFE000000000F1FA1
:10251000181010081F0F0800000000000000000045
:102520000000000000040C7CC4000080740C040057
:1025300000000000031F0C0300000000000000006A
:102540000000000000000000041CF48004ECFC8487
:1025500000E41C040000011F0F00000F0F0000002A
:102560000000000000000000000000000000040C5B
:102570003CE4C0241C0404000010101C12010113D0
:102580001C18100000000000000000000000000007
:102590000004043CC40000C43C0404000000C080EB
:1025A000817F0E010000000000000000000000001C
:1025B0000000000000003C0404C4741C0C00000077
:1025C0000000181E13111010180E0000000000006B
:1025D000000000F80404000000000000001028C7FC
:1025E00000000000000000000000003F404000002C
:1025F000000000000000FF000000000000000000DC
:102600000000FF0000000000000000000000FF00CC
:102610000000000000000404F800000000000000BA
:1026200000000000C728100000000000000040402B
:102630003F00000000000000000C02020204081825
:1026400010100C000000000000000000000000005E
:10265000000000000000000000000000000000007A
:10266000000000000000000000000000000000006A
:10267000000000000000000000000000000000005A
:10268000000000000000000000000000000000004A
:10269000000000000000000000000000000000003A
:1026A0000000C0C0C0C0000000000000000000002A
:1026B00000000FFFFF1F00000000000000000000EE
:1026C0000000001F1F0000000000000000000000CC
:1026D0000000060F0F060000000000000000008050
:1026E000E0783C1C80E0783C1C0000000000030106
:1026F00000000003010000000000000000000000D6
:1027000000000000000000000000000000000000C9
:1027100000000000000000000000000000000000B9
:1027200000C0000000000000C00000000038383881
:10273000F83F3838383838F83F383800007070F0D3
:10274000FF7070707070F0FF707070000000000F0C
:102750000000000000000F0000000000000000006A
:10276000808040F040408080000000000000001E9B
:102770007FF0C0FF00000C0F0F0000000000C0C081
:10278000C00001FF07071EFCF00000000000030767
:102790000408087F080C0603010000000080C04008
:1027A000C0800000000000C0000000007EFF0000AC
:1027B00000FF7E00E01C0300000000000001030297
:1027C00083611C03F8FE030103FEF8000000000C07
:1027D0000300000001070C080C0701000000008046
:1027E000C04040C0000000000000000000007FFF6B
:1027F000C080603F0F00000000000000F8FC0303F1
:102800000F3E78E08081710F010100000103060C8A
:102810000808080503070E0C0C06030000001C1C2A
:10282000FC7800000000000000000000000203012E
:102830000000000000000000000000000000000098
:102840000000000000000000000000000000000088
:102850000000000000000000000000000000000078
:10286000000000000000C06030080400000000000C
:10287000000000F0FC0F010000000000000000005C
:102880000000001F7FE000000000000000000000CA
:10289000000000000001070C182040000004083070
:1028A00060C0000000000000000000000000000008
:1028B00000010FFCF000000000000000000000001C
:1028C0000000E0FF1F000000000000000040201892
:1028D0000C070100000000000000000000000000E4
:1028E0000000000000000000000000000000183898
:1028F00030604086FF8F4060303818000000181CA0
:102900000C0602F1FFE102060C1C1800000000009A
:1029100000000000000000000000000000000000B7
:1029200000000000000000000000000000000000A7
:1029300000000000FE000000000000000000010197
:1029400001010101FF01010101010100000000007E
:102950000000000000000000000000000000000077
:102960000000000000000000000000000000000067
:102970000000000000000000000000000000000057
:102980000000000000000000000000000080C747B9
:102990003F1E0000000000000000000000000000DA
:1029A0000000000000000000000000000000000027
:1029B0000000000000000000000000000001010114
:1029C00001010101010101010101010000000000FC
:1029D00000000000000000000000000000000000F7
:1029E00000000000000000000000000000000000E7
:1029F00000000000000000000000000000000000D7
:102A00000000000000000000000000000000060FB1
:102A10000F060000000000000000000000000000A1
:102A20000000000000000000C0701800000000005E
:102A300000000000C0701C07010000000000000042
:102A4000C0701C07010000000000000000301C07DF
:102A50000100000000000000000000000000000075
:102A60000080C04040408000000000000000F0FEF8
:102A70000F01000000000107FEF0000000003FFF12
:102A8000C000000000000080FF3F000000000001C7
:102A900003060C08080806030100000000000000FF
:102AA00000000080C00000000000000000000001E5
:102AB000010101FFFF000000000000000000000015
:102AC000000000FFFF000000000000000000000800
:102AD00008080C0F0F0C0808080000000000000098
:102AE000804040404040C0808000000000001E192F
:102AF00000000000000000C1FF3E000000000000D8
:102B0000804030180C06030100C0000000000E0DCC
:102B10000C0C0C0C0C0C0C0C0E03000000000080C4
:102B20008040404040C080000000000000000F0FC7
:102B3000000000000080C17F3E0000000000C0C017
:102B40000000010101030206FCF000000000030781
:102B5000040808080808040603000000000000003C
:102B60000000000000C0C0000000000000000000E5
:102B70008060100C03FFFF000000000000302C26D6
:102B80002120202020FFFF20202000000000000046
:102B900000000808080F0F080808000000000000E7
:102BA000C0C0C0C0C0C0C0C0C0C00000000000FFA6
:102BB000008040404040C080000000000000C0C3D2
:102BC0000100000000000001FFFC00000000030401
:102BD00004080808080804070300000000000000BB
:102BE0000080804040404080800000000000E0FC09
:102BF0000781C0404040C0830300000000007FFF09
:102C00008300000000000001FFFC00000000000144
:102C100007060C0808080C0603000000000000C0AE
:102C2000C0C0C0C0C0C0C0C0C0C0000000000E0313
:102C30000000000000E01806010000000000000095
:102C40000000C0FC030000000000000000000000C5
:102C500000000F0F00000000000000000000000056
:102C600080C040404040C0800000000000003E7F27
:102C7000F1C0C080000080417F1E000000F0FC0E0B
:102C80000201010103070E1EFCF000000001030613
:102C9000040808080808040603010000000000807A
:102CA00080404040404080000000000000FCFF03E6
:102CB0000000000000000003FEF800000001030710
:102CC0000C080808080406E17F1F00000000070741
:102CD000080808080C0603010000000000000000BE
:102CE00000000000000000000000000000000000E4
:102CF0000000C0E0E0C00000000000000000000094
:102D000000000001010000000000000000000000C1
:102D10000000060F0F060000000000000000000089
:102D200000000000000000000000000000000000A3
:102D30000000C0C0C0000000000000000000000053
:102D40000000010101000000000000000000000080
:102D500000006E7E1E000000000000000000000069
:102D600000000000000000008040000000000000A3
:102D70008040201008040201000000000000000351
:102D80000408102040800000000000000000000047
:102D90000000000000000102040800000000000024
:102DA00000000000000000000000000000202020C3
:102DB000202020202020202020202000000808089B
:102DC00008080808080808080808080000000000AB
:102DD0000000000000000000000000000000408033
:102DE00000000000000000000000000000000000E3
:102DF00001020408102040800000000000000000D4
:102E000000008040201008040300000000000804B7
:102E100002010000000000000000000000000000AF
:102E200080804040404040808000000000003C3FE7
:102E30003900000000000080C17F3E00000000005B
:102E4000000000003E03010100000000000000003F
:102E50000000060F0F060000000000000000000048
:102E60000080C040404040800000000000E0FC0EB8
:102E70000381E0780C04F83C0106F800001FFFC055
:102E8000003F7F40203C7F40201887000000000367
:102E900006040808080808040603000000000000F3
:102EA0000000C0C0C00000000000000000000000E2
:102EB000C07C03033FFC8000000000000000807C19
:102EC0000F080808080B7FF880000000080C0F08A6
:102ED000080000000000080F0F0C0800004040C070
:102EE000C04040404040C08080000000000000FF23
:102EF000FF000000000080C17F3E0000000000FFD6
:102F0000FF0101010101010206FCF0000008080FA9
:102F10000F0808080808080C06030100000000005C
:102F20000080C040404040808080000000E0FC1EE7
:102F3000030000000000000001030E00003FFFC07E
:102F400000000000000000000000C00000000003BE
:102F5000060408080808080402010000004040C0F8
:102F6000C040404040C0808000000000000000FFE2
:102F7000FF000000000000010FFCF000000000FF57
:102F8000FF00000000000000C0FF1F000008080F45
:102F90000F080808080C040303000000004040C0AC
:102FA000C040404040404040C0C00000000000FF22
:102FB000FF000000000080E000010600000000FFAC
:102FC000FF0101010101030F000080000008080F4C
:102FD0000F080808080808080C0E0100004040C04F
:102FE000C0404040404040C0C0C00000000000FF62
:102FF000FF000000000080E000010600000000FF6C
:10300000FF0101010101031F000000000008080F7B
:103010000F08080000000000000000000000000091
:1030200080804040404080800000000000E0FC0EB6
:1030300003000000000000030E000000001FFFC09E
:1030400000000000000404FCFC0404000000000375
:10305000060C080808080403030000004040C0C034
:103060004040000000004040C0C040400000FFFF62
:103070000000000000000000FFFF00000000FFFF54
:103080000101010101010101FFFF000008080F0F0C
:1030900008080000000008080F0F080800000040A2
:1030A000404040C0C04040404000000000000000E0
:1030B000000000FFFF000000000000000000000012
:1030C000000000FFFF0000000000000000000008FA
:1030D0000808080F0F08080808000000000000009A
:1030E0000040404040C0C040404040000000000060
:1030F0000000000000FFFF000000000000000000D2
:103100000000000000FFFF00000000000070F0F071
:10311000808080C0603F1F0000000000004040C071
:10312000C04040000040C0C040400000000000FF20
:10313000FF0080E01806030000000000000000FF10
:10314000FF0300030F3CF0C0000000000008080F60
:103150000F0808000000090F0E080800004040C0DA
:10316000C04040000000000000000000000000FF20
:10317000FF0000000000000000000000000000FF51
:10318000FF00000000000000000080000008080FA1
:103190000F080808080808080C0E01004040C0C0CD
:1031A0008000000000000080C0C040400000FF0F11
:1031B000FFF0000000807807FFFF00000000FF0024
:1031C000011FFEC0F00F0000FFFF000008080F08FD
:1031D0000000030F000008080F0F08084040C0C09F
:1031E000800000000000004040C040400000FF019F
:1031F000071E78E08000000000FF00000000FF00D4
:1032000000000001071E78E080FF000008080F089A
:103210000800000000000001070F0000000000008F
:1032200080804040404080800000000000F0FC0FA3
:1032300001000000000000010FFCE000001FFFC0C3
:103240000000000000000000C0FF3F00000000037D
:10325000060408080808040603000000004040C0F7
:10326000C0404040404040C080000000000000FFDF
:10327000FF0000000000000081FF7E00000000FF52
:10328000FF02020202020201010000000008080F12
:103290000F0808000000000000000000000000000F
:1032A00080804040404080800000000000F0FC0F23
:1032B00001000000000000010FFCF000003FFF8053
:1032C00080404040C080000080FF3F0000000103BC
:1032D00007040808080F3F7663611000004040C0F3
:1032E000C04040404040C08080000000000000FF1F
:1032F000FF000000000080C17F3E0000000000FFD2
:10330000FF010101073FF9C0000000000008080F9D
:103310000F0808000000010F0E08080000000080E0
:10332000C040404040C08080C0000000003E7FE1BF
:10333000C0C08080000000030F00000000E080009B
:10334000000101030307061EFCF0000000000F0649
:103350000408080808080C06030100000000C0C0AB
:10336000404040C0C040404040C000000006010056
:10337000000000FFFF000000000107000000000047
:10338000000000FFFF00000000000000000000003F
:103390000008080F0F080800000000004040C0C0EF
:1033A0004040000000004040C04040000000FFFFDF
:1033B0000000000000000000FF0000000000FFFF10
:1033C0000000000000000000FF00000000000107F6
:1033D000060C08080808040201000000004040C074
:1033E000C040000000000040C0C0400000000007D6
:1033F000FFF80000000080780700000000000000D7
:10340000000FFFF0807807000000000000000000BF
:103410000000000F030000000000000040C0C0409A
:10342000000040C0C040000040C0C0400001FFF8A4
:10343000000000F3FFF80000C03F00000000003F64
:10344000FCE01E0101FFFCF00F0000000000000086
:103450000F03000000000F0100000000004040C00A
:10346000C040000000004040C0404000000000019B
:10347000071E78E0C0300C030000000000000000D0
:10348000806018070F7CF0C0000000000008080EE4
:103490000B0800000000090F0E0C08000040C0C01F
:1034A000C040400000004040C04040000000000319
:1034B0001F7CE0800080700E010000000000000012
:1034C000000003FFFE0100000000000000000000FB
:1034D0000008080F0F08080000000000000000C0EE
:1034E000C0C0404040404040C0C040000000060313
:1034F00001000000C0F0380E07010000000000804D
:10350000C0703C0F030000000000800000080E0F98
:10351000090808080808080C0C0F0100000000004A
:103520000000F8F80808080808080000000000007B
:103530000000FFFF0000000000000000000000008D
:103540000000FFFF0000000000000000000000007D
:1035500000003F3F202020202020000000000060CD
:10356000E00000000000000000000000000000007B
:10357000010F3CE08000000000000000000000009F
:1035800000000001073CF0C0000000000000000047
:1035900000000000000001073E784000000008081D
:1035A00008080808F8F8000000000000000000000B
:1035B00000000000FFFF000000000000000000000D
:1035C00000000000FFFF00000000000000002020BD
:1035D000202020203F3F00000000000000000000ED
:1035E00020101C0C0C0C1820000000000000000033
:1035F00000000000000000000000000000000000CB
:1036000000000000000000000000000000000000BA
:1036100000000000000000000000000000000000AA
:10362000000000000000000000000000000000009A
:10363000000000000000000000000000000000008A
:10364000000000000000000000000000808080807A
:103650008080808080808080808080800000000466
:1036600004040C081000000000000000000000002E
:10367000000000000000000000000000000000004A
:10368000000000000000000000000000000000003A
:10369000000000000000000000000000000000002A
:1036A000000000000000000000000000000080C0DA
:1036B00040202020202060C08000000000C0E333B4
:1036C00010180808080804FFFF0000000003070C9A
:1036D00008080808080404070F080806004040C04E
:1036E000E00000000000000000000000000000FFFB
:1036F000FF804020202060C0C0000000000000FFCC
:10370000FF01000000000000FFFF00000000000FAC
:103710000706080808080C06030000000000000067
:103720000000000000000000000000000000000099
:10373000C0C06020202020C0800000000000FEFFEC
:1037400001000000000000030380000000000003EF
:10375000070408080808080402010000000000002F
:1037600000000000004040C0E000000000000080B9
:10377000C0602020202040FFFF0000000000FEFF6E
:1037800001000000000000FFFF0000000000000337
:10379000060C08080804020F0704040000000000DB
:1037A0000000000000000000000000000000000019
:1037B000C0402020202040C0800000000000FEFF0C
:1037C00011101010101010101F1E00000000000338
:1037D00007040C08080808040601000000000000A7
:1037E000000000808040404040C080000000202059
:1037F0002020FEFF202020202003030000000000E6
:103800000000FFFF000000000000000000000008B2
:1038100008080F0F0808080800000000000000005A
:103820000000000000000000000000000000000098
:10383000C0402020202060C0A0606000000000C7C1
:10384000FF3020202020301F0F0000000000387DB6
:1038500047838383838382467E3C0000004040C0D0
:10386000E00000000000000000000000000000FF79
:10387000FF804020202060C080000000000000FF8A
:10388000FF000000000000FFFF0000000008080F1C
:103890000F0808000008080F0F08080000000000CB
:1038A000000080C0C0800000000000000000002078
:1038B000202020E1F10000000000000000000000D6
:1038C000000000FFFF0000000000000000000008F2
:1038D0000808080F0F080808080000000000000092
:1038E000000000000080C0C0C00000000000000018
:1038F000000020202020E1F1000000000000000076
:10390000000000000000FFFF000000000000006059
:10391000E080808080603F1F00000000004040C0C9
:10392000E00000000000000000000000000000FFB8
:10393000FF0000000020E06020200000000000FFE9
:10394000FF30180C3E71C080000000000008080F16
:103950000F0808000000090F0E0C080000000040CE
:10396000404040C0E00000000000000000000000F7
:10397000000000FFFF000000000000000000000049
:10398000000000FFFF000000000000000000000831
:103990000808080F0F0808080800000000000000D1
:1039A00000000000000000000000000020E0F040E7
:1039B000202020E0C040202020E0C00000FFFF00C9
:1039C000000000FFFF00000000FFFF00080F0F08CD
:1039D0000000080F0F080000080F0F08000000008B
:1039E000000000000000000000000000004040C097
:1039F000E0804020202060C080000000000000FF28
:103A0000FF000000000000FFFF0000000008080F9A
:103A10000F0808000008080F0F0808000000000049
:103A20000000000000000000000000000000000096
:103A3000C0402020202040C0800000000000FCFF8B
:103A40000100000000000001FFFE00000000000374
:103A5000070408080808040703000000000000002D
:103A6000000000000000000000000000004040C016
:103A7000E0804020202060C080000000000000FFA7
:103A8000FF00000000000000FFFE0000008080FF3B
:103A9000FF86840808080C070300000000000000EF
:103AA0000000000000000000000000000000008096
:103AB000C04020202060C0C0E00000000000FEFFE9
:103AC00001000000000000FFFF00000000000003F4
:103AD000060C0808088486FFFF80800000000000B4
:103AE0000000000000000000000000000040404016
:103AF00040E0E0008040402020E0C00000000000E6
:103B000000FFFF030100000000000000000808089B
:103B1000080F0F080808080000000000000000005F
:103B20000000000000000000000000000000000095
:103B300080C0602020202040C0E000000000008005
:103B4000070F0C1818383070E0C300000000000F99
:103B5000060408080808080C07030000000000001D
:103B60000000000000000000000000000000202015
:103B70002030F8FF2020202020000000000000005E
:103B80000000FFFF00000000000000000000000037
:103B9000000003070C0808080403000000000000F0
:103BA000000000000000000000000000002020E0F5
:103BB000F0000000002020E0F0000000000000FF06
:103BC000FF000000000000FFFF00000000000003F5
:103BD000070C08080804020F070404000000000096
:103BE000000000000000000000000000002020E0B5
:103BF000E020000000002020E06020000000000124
:103C0000073EF0C000C038070100000000000000BF
:103C10000000010F0701000000000000000000008C
:103C20000000000000000000000000002060E02014
:103C3000200020E0E020000020E060200000077F5E
:103C4000F080F00F1FFCC0C03C030000000000002B
:103C5000070F000000010F0300000000000000003B
:103C60000000000000000000000000000000202014
:103C7000E0E0A000002020E0202000000000000084
:103C80000081473E38E6C100000000000008080C33
:103C90000E0900000008090F0E08080000000000CF
:103CA000000000000000000000000000002020E0F4
:103CB000E0200000000020E0602020000000000064
:103CC000031E78C000E01C03000000000000C0C01C
:103CD000C0C0601F030000000000000000000000E2
:103CE0000000000000000000000000000000E0E014
:103CF000202020202020E0E06000000000000300E1
:103D000080C0F0381E0703000080000000000C0E89
:103D10000B0908080808080C0E030000000000004A
:103D2000000000000000F008040400000000000093
:103D30000000000080807F00000000000000000004
:103D4000000000010102FC00000000000000000073
:103D50000000000000001F204040000000000000A4
:103D600000000000FF000000000000000000000054
:103D700000000000FF000000000000000000000044
:103D800000000000FF000000000000000000000034
:103D900000000000FF000000000000000000000420
:103DA0000408F00000000000000000000000000017
:103DB00000007F8080000000000000000000000084
:103DC0000000FC02010100000000000000000040B3
:103DD00040201F0000000000000000000018040246
:103DE0000202060C3820604040201800000000004D
:103DF00000000000000000000000000000000000C3
:103E000000000000000000000000000000000000B2
:103E10000000000000000000000000003C3E000820
:103E2000000000205C00000028010008983E000807
:103E30005C0000202C0B0000440100080000000082
:103E4000010203040102030406070809020406082C
:103E500000A24A0400000000000000000102030468
:103E60000607080900000000000000000000000034
:103E7000804000003C000020081010009C0E00084C
:103E8000060C0C008C1400080C1824000019000803
:083E9000102040005C26000830
:04000005080000ED02
:00000001FF
